{
  "contractName": "Plutus",
  "abi": [
    {
      "constant": true,
      "inputs": [
        {
          "name": "",
          "type": "uint256"
        }
      ],
      "name": "nfts",
      "outputs": [
        {
          "name": "nftidentifier",
          "type": "uint256"
        },
        {
          "name": "nftname",
          "type": "string"
        },
        {
          "name": "loanamount",
          "type": "uint256"
        },
        {
          "name": "nftowner",
          "type": "address"
        },
        {
          "name": "nftonloan",
          "type": "bool"
        },
        {
          "name": "tenure",
          "type": "uint256"
        },
        {
          "name": "rate",
          "type": "uint256"
        },
        {
          "name": "monthlyintrest",
          "type": "uint256"
        }
      ],
      "payable": false,
      "stateMutability": "view",
      "type": "function",
      "signature": "0x265aa621"
    },
    {
      "constant": true,
      "inputs": [],
      "name": "productCount",
      "outputs": [
        {
          "name": "",
          "type": "uint256"
        }
      ],
      "payable": false,
      "stateMutability": "view",
      "type": "function",
      "signature": "0xe0f6ef87"
    },
    {
      "inputs": [],
      "payable": false,
      "stateMutability": "nonpayable",
      "type": "constructor",
      "signature": "constructor"
    },
    {
      "anonymous": false,
      "inputs": [
        {
          "indexed": false,
          "name": "nftidentifier",
          "type": "uint256"
        },
        {
          "indexed": false,
          "name": "nftname",
          "type": "string"
        },
        {
          "indexed": false,
          "name": "loanamount",
          "type": "uint256"
        },
        {
          "indexed": false,
          "name": "nftowner",
          "type": "address"
        },
        {
          "indexed": false,
          "name": "nftonloan",
          "type": "bool"
        },
        {
          "indexed": false,
          "name": "tenure",
          "type": "uint256"
        },
        {
          "indexed": false,
          "name": "rate",
          "type": "uint256"
        },
        {
          "indexed": false,
          "name": "monthlyintrest",
          "type": "uint256"
        }
      ],
      "name": "PlutusNFTCreated",
      "type": "event",
      "signature": "0x4372c3c73fc6b11e4181fe5f8ae8cd39ed78b5db3e5b95c1ab7842ea1bcf8602"
    },
    {
      "anonymous": false,
      "inputs": [
        {
          "indexed": false,
          "name": "nftidentifier",
          "type": "uint256"
        },
        {
          "indexed": false,
          "name": "nftname",
          "type": "string"
        },
        {
          "indexed": false,
          "name": "loanamount",
          "type": "uint256"
        },
        {
          "indexed": false,
          "name": "nftowner",
          "type": "address"
        },
        {
          "indexed": false,
          "name": "nftonloan",
          "type": "bool"
        },
        {
          "indexed": false,
          "name": "tenure",
          "type": "uint256"
        },
        {
          "indexed": false,
          "name": "rate",
          "type": "uint256"
        },
        {
          "indexed": false,
          "name": "monthlyintrest",
          "type": "uint256"
        }
      ],
      "name": "PlutusNFTLoaned",
      "type": "event",
      "signature": "0x8a9aa12fd33b5a3bcabe6f3175656d3ab33e06322f1ec5eab285eb58a3deaaf4"
    },
    {
      "constant": false,
      "inputs": [
        {
          "name": "_name",
          "type": "string"
        },
        {
          "name": "_price",
          "type": "uint256"
        }
      ],
      "name": "createPlutusNFT",
      "outputs": [],
      "payable": false,
      "stateMutability": "nonpayable",
      "type": "function",
      "signature": "0x95aa12db"
    },
    {
      "constant": false,
      "inputs": [
        {
          "name": "_id",
          "type": "uint256"
        }
      ],
      "name": "loanNFTProduct",
      "outputs": [],
      "payable": true,
      "stateMutability": "payable",
      "type": "function",
      "signature": "0x707d73b9"
    }
  ],
  "bytecode": "0x60806040526000805534801561001457600080fd5b50610c25806100246000396000f3fe608060405260043610610062576000357c0100000000000000000000000000000000000000000000000000000000900463ffffffff168063265aa62114610067578063707d73b91461017c57806395aa12db146101aa578063e0f6ef871461027c575b600080fd5b34801561007357600080fd5b506100a06004803603602081101561008a57600080fd5b81019080803590602001909291905050506102a7565b60405180898152602001806020018881526020018773ffffffffffffffffffffffffffffffffffffffff1673ffffffffffffffffffffffffffffffffffffffff16815260200186151515158152602001858152602001848152602001838152602001828103825289818151815260200191508051906020019080838360005b8381101561013a57808201518184015260208101905061011f565b50505050905090810190601f1680156101675780820380516001836020036101000a031916815260200191505b50995050505050505050505060405180910390f35b6101a86004803603602081101561019257600080fd5b81019080803590602001909291905050506103b4565b005b3480156101b657600080fd5b5061027a600480360360408110156101cd57600080fd5b81019080803590602001906401000000008111156101ea57600080fd5b8201836020820111156101fc57600080fd5b8035906020019184600183028401116401000000008311171561021e57600080fd5b91908080601f016020809104026020016040519081016040528093929190818152602001838380828437600081840152601f19601f82011690508083019250505050505050919291929080359060200190929190505050610855565b005b34801561028857600080fd5b50610291610af0565b6040518082815260200191505060405180910390f35b6001602052806000526040600020600091509050806000015490806001018054600181600116156101000203166002900480601f0160208091040260200160405190810160405280929190818152602001828054600181600116156101000203166002900480156103595780601f1061032e57610100808354040283529160200191610359565b820191906000526020600020905b81548152906001019060200180831161033c57829003601f168201915b5050505050908060020154908060030160009054906101000a900473ffffffffffffffffffffffffffffffffffffffff16908060030160149054906101000a900460ff16908060040154908060050154908060060154905088565b6103bc610af6565b60016000838152602001908152602001600020610100604051908101604052908160008201548152602001600182018054600181600116156101000203166002900480601f01602080910402602001604051908101604052809291908181526020018280546001816001161561010002031660029004801561047f5780601f106104545761010080835404028352916020019161047f565b820191906000526020600020905b81548152906001019060200180831161046257829003601f168201915b50505050508152602001600282015481526020016003820160009054906101000a900473ffffffffffffffffffffffffffffffffffffffff1673ffffffffffffffffffffffffffffffffffffffff1673ffffffffffffffffffffffffffffffffffffffff1681526020016003820160149054906101000a900460ff1615151515815260200160048201548152602001600582015481526020016006820154815250509050600081606001519050600082600001511180156105465750600054826000015111155b151561055157600080fd5b8160400151341015151561056457600080fd5b816080015115151561057557600080fd5b3373ffffffffffffffffffffffffffffffffffffffff168173ffffffffffffffffffffffffffffffffffffffff16141515156105b057600080fd5b60018260c001511115156105c357600080fd5b62278d008260a001511115156105d857600080fd5b33826060019073ffffffffffffffffffffffffffffffffffffffff16908173ffffffffffffffffffffffffffffffffffffffff16815250506001826080019015159081151581525050816001600085815260200190815260200160002060008201518160000155602082015181600101908051906020019061065b929190610b54565b506040820151816002015560608201518160030160006101000a81548173ffffffffffffffffffffffffffffffffffffffff021916908373ffffffffffffffffffffffffffffffffffffffff16021790555060808201518160030160146101000a81548160ff02191690831515021790555060a0820151816004015560c0820151816005015560e082015181600601559050508073ffffffffffffffffffffffffffffffffffffffff166108fc349081150290604051600060405180830381858888f19350505050158015610734573d6000803e3d6000fd5b507f8a9aa12fd33b5a3bcabe6f3175656d3ab33e06322f1ec5eab285eb58a3deaaf4600054836020015184604001513360018760a001518860c001518960e0015160405180898152602001806020018881526020018773ffffffffffffffffffffffffffffffffffffffff1673ffffffffffffffffffffffffffffffffffffffff16815260200186151515158152602001858152602001848152602001838152602001828103825289818151815260200191508051906020019080838360005b8381101561080f5780820151818401526020810190506107f4565b50505050905090810190601f16801561083c5780820380516001836020036101000a031916815260200191505b50995050505050505050505060405180910390a1505050565b6000825111151561086557600080fd5b60008111151561087457600080fd5b60008081548092919060010191905055506101006040519081016040528060005481526020018381526020018281526020013373ffffffffffffffffffffffffffffffffffffffff16815260200160001515815260200162ed4e008152602001600c8152602001600c6064600c858115156108eb57fe5b04028115156108f657fe5b048152506001600080548152602001908152602001600020600082015181600001556020820151816001019080519060200190610934929190610b54565b506040820151816002015560608201518160030160006101000a81548173ffffffffffffffffffffffffffffffffffffffff021916908373ffffffffffffffffffffffffffffffffffffffff16021790555060808201518160030160146101000a81548160ff02191690831515021790555060a0820151816004015560c0820151816005015560e082015181600601559050507f4372c3c73fc6b11e4181fe5f8ae8cd39ed78b5db3e5b95c1ab7842ea1bcf8602600054838333600062ed4e00600c806064600c8b811515610a0557fe5b0402811515610a1057fe5b0460405180898152602001806020018881526020018773ffffffffffffffffffffffffffffffffffffffff1673ffffffffffffffffffffffffffffffffffffffff16815260200186151515158152602001858152602001848152602001838152602001828103825289818151815260200191508051906020019080838360005b83811015610aab578082015181840152602081019050610a90565b50505050905090810190601f168015610ad85780820380516001836020036101000a031916815260200191505b50995050505050505050505060405180910390a15050565b60005481565b61010060405190810160405280600081526020016060815260200160008152602001600073ffffffffffffffffffffffffffffffffffffffff1681526020016000151581526020016000815260200160008152602001600081525090565b828054600181600116156101000203166002900490600052602060002090601f016020900481019282601f10610b9557805160ff1916838001178555610bc3565b82800160010185558215610bc3579182015b82811115610bc2578251825591602001919060010190610ba7565b5b509050610bd09190610bd4565b5090565b610bf691905b80821115610bf2576000816000905550600101610bda565b5090565b9056fea165627a7a72305820dfa2945a36bdf6130e90f5309bad31524d57d77ce4440a4d5fee58e908cd21b20029",
  "source": "pragma solidity ^0.5.0;\r\n\r\ncontract Plutus {\r\n    uint public productCount = 0;\r\n    mapping(uint => PlutusNFT) public nfts;\r\n\r\n    struct PlutusNFT {\r\n        uint nftidentifier;\r\n        string nftname;\r\n        uint loanamount;\r\n        address payable nftowner;\r\n        bool nftonloan;\r\n        uint tenure;\r\n        uint rate;\r\n        uint monthlyintrest;\r\n    }\r\n\r\n    event PlutusNFTCreated(uint nftidentifier,string nftname,uint loanamount,address nftowner,bool nftonloan,uint tenure, uint rate, uint monthlyintrest);\r\n\r\n    event PlutusNFTLoaned(uint nftidentifier,string nftname,uint loanamount,address nftowner,bool nftonloan,uint tenure, uint rate, uint monthlyintrest);\r\n\r\n    constructor() public{\r\n    }\r\n\r\n    function createPlutusNFT(string memory _name, uint _price) public {\r\n        require(bytes(_name).length > 0);\r\n        require(_price > 0);\r\n        productCount ++;\r\n        nfts[productCount] = PlutusNFT(productCount, _name, _price, msg.sender, false, 180 days, 12, ((_price/12)*100)/12);\r\n        emit PlutusNFTCreated(productCount, _name, _price, msg.sender, false, 180 days, 12, ((_price/12)*100)/12);\r\n    }\r\n\r\n    function loanNFTProduct(uint _id) public payable {\r\n        PlutusNFT memory _nftproduct = nfts[_id];\r\n        address payable _nftOwner = _nftproduct.nftowner;\r\n        require(_nftproduct.nftidentifier > 0 && _nftproduct.nftidentifier <= productCount);\r\n        require(msg.value >= _nftproduct.loanamount);\r\n        require(!_nftproduct.nftonloan);\r\n        require(_nftOwner != msg.sender );\r\n        require(_nftproduct.rate > 1);\r\n        require(_nftproduct.tenure > 30 days);\r\n        _nftproduct.nftowner = msg.sender;\r\n        _nftproduct.nftonloan = true;\r\n        nfts[_id] = _nftproduct;\r\n        address(_nftOwner).transfer(msg.value);\r\n        emit PlutusNFTLoaned(productCount, _nftproduct.nftname, _nftproduct.loanamount, msg.sender, true,_nftproduct.tenure, _nftproduct.rate, _nftproduct.monthlyintrest);\r\n    }\r\n}",
  "sourcePath": "C:/Users/sudha/Desktop/Learn_Explore/NFTHack/plutus/src/contracts/Plutus.sol",
  "compiler": {
    "name": "solc",
    "version": "0.5.0+commit.1d4f565a.Emscripten.clang"
  },
  "schemaVersion": "3.0.2",
  "updatedAt": "2022-01-15T16:43:24.905Z",
  "devdoc": {
    "methods": {}
  },
  "userdoc": {
    "methods": {}
  }
}